:020000020000FC
:0400000019C03AC029
:04002400A7C0CEC0E3
:02001A002FC0F5
:100034002DD031D054D078D086D119D139D2BCD07A
:10004400789400C01CD11FD158F428D12DD130D1BF
:1000540098F433D1C8F40BD135D1A8D108F440D1E8
:1000640003B7077F016003BF8895000000000E7F7F
:1000740003BFE8CF1895189500916601002381F31A
:10008400EAECF3E0BED0ECCFEAD0EACF0FEF0DBF3D
:1000940004E00EBF089531E630937C0036E83093D7
:1000A4007A003CE330937E00089530917A00306CFE
:1000B40030937A0030917A0036FDFCCF3F7730934D
:1000C4007A00309178004091790008954F934091DF
:1000D4007C00477F432B40937C004F91089502D0CE
:1000E40012D0089554B1597F566054B954B55C7018
:1000F400536A54BD55B5587F526055BD002707BD9E
:10010400002708BD08955AB1577F58605AB95091D5
:10011400B0005C7C53625093B0005091B100587FA2
:1001240052605093B10008950F931F93AF93BF9300
:1001340000E00093C50007E60093C40002E00093CA
:10014400C00006E00093C20008E90093C10000E08B
:10015400802E01E0902EA0E0B1E010E400270D9382
:100164001A95E9F7AA24BF91AF911F910F910895B1
:100174000FEF009366010091C600013359F002337A
:1001840069F0033379F0043389F0053389F00633D9
:1001940089F01895EEECF2E034D0FBCFE6E1F3E021
:1001A40030D0F7CFE4E5F3E02CD0F3CF58D0F1CF43
:1001B4005ED0EFCF01D0EDCF002700936601089504
:1001C4000F931F930FB70F93AF93BF93AA2069F0B8
:1001D400D4010D910093C600A03420F0B13010F08A
:1001E400A0E0B1E04D01AA9429F40091C1000F7D73
:1001F4000093C100BF91AF910F910FBF1F910F9159
:100204001895EF93FF93AF93BF930F93D401059188
:10021400002349F00D93A394A034C8F3B130B8F38C
:10022400A0E0B1E0F4CF0091C10000620093C100EE
:100234000F91BF91AF91FF91EF9108952F933F9349
:100244004F9323E038E048E74A95F1F73A95E1F710
:100254002A95D1F74F913F912F91089508950091D8
:1002640066010F3F19F00FEF0093B4000895009159
:1002740066010F3FD9F300270093B400089536E0D8
:1002840025DF13DF089588944A3008F401D00895D7
:100294000BB10F7600610BB9089408950BB10F767A
:1002A40000680BB98894089537E010DFFEDE0895E6
:1002B4000894442309F08894089588944A3040F0BF
:1002C40001D0089508B10C7F026008B9089408951C
:1002D40001D0F7CF08B10C7F016008B98894089564
:1002E400F8940091600110916101011700F10091EF
:1002F4006001109161011017E0F00091600110910C
:1003040061010117C1F000916001109163010117AF
:10031400A0F00091600110916301101780F000912A
:10032400600110916301011761F078940895C3D0BE
:10033400DECFC8D0E2CFCDD0E6CFCFD0EACFD4D075
:10034400EECFD9D0F2CF1ED04427EB2DFC2D419314
:10035400BE2ECF2EE22DF32D41932E2E3F2EE42DD3
:10036400F52D41934E2E5F2EE62DF72D41936E2EE3
:100374007F2E00916401039500936401083020F3FB
:1003840001D0089500E4B02E01E0C02E08E5202E2F
:1003940001E0302E00E5402E01E0502E08E4602EEE
:1003A40001E0702E00270093640108950091640118
:1003B4000830F1F00091640103950093640168D062
:1003C400EB2DFC2D4193BE2ECF2E66D0E22DF32DC6
:1003D40041932E2E3F2E64D0E42DF52D41934E2EC5
:1003E4005F2E62D0E62DF72D41936E2E7F2E089559
:1003F400C9DFE0CF08E0E0E4F1E00F9301911127B9
:100404001191010F2227121F0A95D1F723E0000F43
:10041400111F2A95E1F70F9110936001E8E5F1E0CF
:100424000F93019111271191010F2227121F0A9591
:10043400D1F723E0000F111F2A95E1F70F911093D4
:100444006301E0E5F1E00F93019111271191010F90
:100454002227121F0A95D1F723E0000F111F2A95B6
:10046400E1F70F9110936201E8E4F1E00F93019139
:1004740011271191010F2227121F0A95D1F723E0AA
:10048400000F111F2A95E1F70F9110936101089550
:1004940032E01CDE0ADE089534E018DE06DE08953C
:1004A40034E014DE02DE089533E010DEFEDD08954C
:1004B40010D021D0089505B1097F026005B95CE32D
:1004C40057BD089505B1097F046005B95CE357BDC4
:1004D40008950027002707BD089505B1097F02602C
:1004E40005B956E458BD089505B1097F046005B9FE
:0E04F40056E458BD08950027002708BD08955E
:00000001FF
