:020000020000FC
:0400000019C056C00D
:04002400D3C001C183
:02001A004BC0D9
:100034000FEF0DBF04E00EBF55D0F1D088D1B6D17B
:1000440061D082D088D29CD04FD3789403C077D12A
:10005400789400C0BBD2BAD2B9D2B8D2B7D2B6D291
:10006400B5D2B4D2B3D2B2D2B1D2B0D2D3D2CDD12E
:10007400E2E6F8E0C0E7D1E014D143D142D1EACFBF
:10008400E9CF40983ED1409A3CD1E4CF419839D150
:10009400419A37D1DFCF5F9834D15F9A32D1DACF2A
:1000A4005C982FD15C9A2DD1D5CFD4CF18951895C3
:1000B400009179010023C9F7E4E8F8E0D5D0F5CF41
:1000C4006FD198D129D1F1CF0AB10B7F0AB9009130
:1000D40069000C7F0160009369000DB30C7F01601F
:1000E4000DBB08950EEE0093840005E8009385008F
:1000F40004E00093810000E00093800001E000939D
:100104006F00089534E630937C0036E830937A002B
:100114003CE330937E00089500917C00007F032B24
:1001240000937C00089500917A00006C00937A009B
:1001340000917A0006FDFCCF0F7700937A0030918E
:10014400780040917900089501D0089554B1597F01
:10015400566054B9509180005C70516F5093800088
:1001640050918100507E5A60509381000027009383
:10017400880000938A000093890000938B000895FF
:100184000F931F93AF93BF9300E00093C50007E65E
:100194000093C40002E00093C00006E00093C20094
:1001A40008E90093C10000E0802E01E0902EA0E059
:1001B400B1E010E400270D931A95E9F7AA24BF9142
:1001C400AF911F910F9108950091C6000137D9F0A6
:1001D400023369F0033389F00433D9F00533D9F0DD
:1001E4000633D9F01895E6E0F8E03ED0FBCFEAE21A
:1001F400F8E0C0E4D1E055D0F5CFE8E4F8E0C8E495
:10020400D1E04FD0EFCFE2E6F8E0C0E7D1E049D04B
:10021400E9CF8DD0E7CF93D0E5CF01D0E3CF00274E
:100224000093790108950F931F930FB70F93AF9322
:10023400BF93AA2069F0D4010D910093C600A034A5
:1002440020F0B13010F0A0E0B1E04D01AA9429F4FF
:100254000091C1000F7D0093C100BF91AF910F9138
:100264000FBF1F910F911895EF93FF93AF93BF9317
:100274000F93D4010591002349F00D93A394A03466
:10028400C8F3B130B8F3A0E0B1E0F4CF0091C100FD
:1002940000620093C1000F91BF91AF91FF91EF9164
:1002A4000895EF93FF93AF93BF930F93D4010591F8
:1002B400002349F00D93A394A034C8F3B130B8F3EC
:1002C400A0E0B1E0F4CF0991002349F00D93A39489
:1002D400A034C8F3B130B8F3A0E0B1E0F4CF00919A
:1002E400C10000620093C1000F91BF91AF91FF91D3
:1002F400EF91089502E019E01A95F1F70A95E1F7F4
:10030400089503E018E028E72A95F1F71A95E1F734
:100314000A95D1F70895089505E11BE42FEB2A957A
:10032400F1F71A95E1F70A95D1F7000008950091C5
:1003340079010F3F19F00FEF0093B4000895009175
:1003440079010F3FD9F300270093B40008950AB14F
:100354000F7600690AB91FD0A0E4B1E000E30D9361
:1003640000E30D930EE20D9300E30D9306E50D9368
:100374000DE00D930AE00D9300E00C93089536E030
:10038400CBDED1DE089588944A3A10F009D008955E
:1003940002D00894FCCF0BB10F7600610BB908951D
:1003A4000BB10F7600680BB98894089507B10C7FE0
:1003B400036007B91FD0A8E4B1E000E30D9300E3A4
:1003C4000D930EE20D9300E30D9306E50D930DE0FE
:1003D4000D930AE00D9300E00C93089537E09CDE42
:1003E400A2DE08958894423310F009D0089502D013
:1003F4000894FCCF08B10C7F026008B9089508B1D5
:100404000C7F016008B988940895009170011091DF
:100414007101007F107F003F11F4011B81F00091F6
:10042400700110917101007F107F011748F0009155
:10043400700110917101007F107F101758F008951A
:10044400011B0068602F61D15CDF5BDFC6D164DF14
:1004540063DFEDCF101B1068612F6AD152DF51DFCB
:10046400BCD15ADF59DFEBCFA8E4B1E0E2EAF8E00F
:10047400403838F400E30D9307D0E2EAF8E054D0B2
:10048400089501E30D93F8CF4C3030F1493140F138
:10049400463250F1433360F1403470F14C3480F112
:1004A400493590F14636A0F14337B0F14F37C0F1EA
:1004B4004D3890F04939A0F0463AB0F0433BC0F0D3
:1004C400403CD0F04D3CE0F0493DF0F0463E00F1B8
:1004D400433F10F125C0089500E30D930027FBCF9F
:1004E40001E30D9301E0F7CF02E30D9302E0F3CFB4
:1004F40003E30D9303E0EFCF04E30D9304E0EBCFAC
:1005040005E30D9305E0E7CF06E30D9306E0E3CFA3
:1005140007E30D9307E0DFCF08E30D9308E0DBCF9B
:1005240009E30D9309E0D7CF0F93E00F1BF4F39584
:100534000E1B0E2F00000491041BE6EBF8E00F9352
:10054400E00F1BF4F3950E1B0E2F0000049170E3D3
:10055400170F1C93089526D04427E22DF32D4193C1
:100564002E2E3F2EEB2DFC2D4193BE2ECF2EE62DAD
:10057400F72D41936E2E7F2EE42DF52D41934E2EB3
:100584005F2E00917701039500937701083020F3E3
:1005940009D0A4E7B1E00DE00D930AE00D9300E06B
:1005A4000C93089500E5202E01E0302E08E5402E3E
:1005B40001E0502E00E6602E01E0702E08E6B02E19
:1005C40001E0C02E00270093770108950091770180
:1005D4000830F1F00091770103950093770174D00E
:1005E400E22DF32D41932E2E3F2E7AD0E42DF52DBE
:1005F40041934E2E5F2E70D0E62DF72D41936E2E33
:100604007F2E66D0EB2DFC2D4193BE2ECF2E089568
:10061400C9DFE0CF08E0E0E5F1E00F936191112735
:100624000A952227B8947191670F121F0A95D1F782
:1006340023E0169567952A95E1F7162F0F911093ED
:100644007001E8E5F1E00F93619111270A952227E3
:10065400B8947191670F121F0A95D1F723E016958C
:1006640067952A95E1F7162F0F9110937101E0E633
:10067400F1E00F93619111270A952227B8947191A3
:10068400670F121F0A95D1F723E0169567952A95EF
:10069400E1F7162F0F9110937201E8E6F1E00F9342
:1006A400619111270A952227B8947191670F121F3F
:1006B4000A95D1F723E0169567952A95E1F7162F49
:1006C4000F9110937301089533E026DD2CDD089516
:1006D40035E022DD28DD089534E01EDD24DD0895B3
:1006E40032E01ADD20DD08950AB10F7900660AB9F7
:1006F4000BB10F790BB90027009388000093890090
:1007040000938A0000938B000895509180005C70E0
:100714005168509380000BB10F7900640BB9002726
:100724000093890000938A0000938B0026D00895DB
:10073400509180005C705168509380000BB10F7928
:1007440000620BB900270093890000938A0000938C
:100754008B0013D00895509180005C7051625093C7
:1007640080000BB10F7900620BB900270093880059
:100774000093890000938B000895772773957093F5
:100784008800B8DD763910F4B5DDB4DDB3DDB2DD53
:100794007617A0F3089570918800709388007C38D0
:1007A40010F4A8DDA7DDA6DDA5DDA4DD7A95A9F703
:1007B4000895509180005C705162509380000BB199
:1007C4000F7900640BB90027009388000093890017
:1007D40000938B0010938A000895509180005C7000
:1007E4005160509380000BB10F790BB9D4DF00270F
:1007F400009388000093890000938A0000938B0083
:100804000895534F4C415220545241434B45520D8D
:100814000A48414349454E444F20454C20465554CF
:1008240055524F0D0A004C412054454E53494F4EEA
:10083400204445204C4120424154455249412045E1
:10084400533A20004C412054454E53494F4E2044C6
:10085400454C2050414E454C2045533A2000000061
:100864004C41204241544552494120455354412072
:10087400444553434F4E454354414441210D0A00DE
:10088400454C2050414E454C20455354412044454D
:1008940053434F4E45435441444F210D0A000C1914
:1008A4002633404C5966737F8D99A6B3C0CDD9E6E3
:0E08B400F3FF0001020303040506070808090C
:00000001FF
