:020000020000FC
:0400000019C051C012
:04002400C5C0E9C0AA
:02001A0046C0DE
:100034000FEF0DBF04E00EBF80D14DD0789447D1AF
:1000440006C090D045D256D1F8D2789400C00AB1F7
:1000540008600AB90BB108600BB9F9CF409837D1E1
:10006400409A35D1F4CF419832D1419A30D1EFCF73
:100074005F982DD15F9A2BD1EACF5C9828D15C9AF6
:1000840026D1E5CF44D147D158F451D15BD15ED1CB
:1000940050F461D180F42ED163D14DD208F46ED1E5
:1000A400D6CF18951895009169010023C9F7E6E1A8
:1000B400F7E0C2D0F5CF16D1F3CF0AB10B7F0AB95E
:1000C400009169000C7F0160009369000DB30C7FFF
:1000D40001600DBB089534E430937C0036E830931E
:1000E4007A003CE330937E00089500917C00007F09
:1000F400032B00937C00089500917A00006C009318
:100104007A0000917A0006FDFCCF0F7700937A0005
:100114003091780040917900089502D012D008956A
:1001240054B1597F566054B954B55C70536A54BD88
:1001340055B5587F526055BD002707BD002708BD3F
:1001440008955AB1577F58605AB95091B0005C7CF9
:1001540053625093B0005091B100587F5260509355
:10016400B10008950F931F93AF93BF9300E00093E2
:10017400C50007E60093C40002E00093C00006E057
:100184000093C20008E90093C10000E0802E01E062
:10019400902EA0E0B1E010E400270D931A95E9F742
:1001A400AA24BF91AF911F910F9108950091C600A9
:1001B400013359F0023369F0033379F0043389F0E1
:1001C400053389F0063389F01895E4E9F6E034D074
:1001D400FBCFEAEBF6E030D0F7CFEAEDF6E02CD037
:1001E400F3CF80D0F1CF86D0EFCF01D0EDCF002771
:1001F4000093690108950F931F930FB70F93AF9363
:10020400BF93AA2069F0D4010D910093C600A034D5
:1002140020F0B13010F0A0E0B1E04D01AA9429F42F
:100224000091C1000F7D0093C100BF91AF910F9168
:100234000FBF1F910F911895EF93FF93AF93BF9347
:100244000F93D4010591002349F00D93A394A03496
:10025400C8F3B130B8F3A0E0B1E0F4CF0091C1002D
:1002640000620093C1000F91BF91AF91FF91EF9194
:100274000895EF93FF93AF93BF930F93D401059128
:10028400002349F00D93A394A034C8F3B130B8F31C
:10029400A0E0B1E0F4CF0091C10000620093C1007E
:1002A4000F91BF91AF91FF91EF9108952F933F93D9
:1002B4004F9323E038E048E74A95F1F73A95E1F7A0
:1002C4002A95D1F74F913F912F910895089525E1F3
:1002D4003BE44FEB4A95F1F73A95E1F72A95D1F7CC
:1002E40000000895009169010F3F19F00FEF00938A
:1002F400B4000895009169010F3FD9F300270093DA
:10030400B40008950AB10F7600690AB9089536E079
:10031400ECDEF2DE0895423310F009D0089501D0E6
:10032400FDCF0BB10F7600610BB9089408950BB1A2
:100334000F7600680BB98894089507B10C7F0360A9
:1003440007B9089537E0D1DED7DE08950894442331
:1003540009F08894089588944A3040F001D00895B3
:1003640008B10C7F016008B90894089501D0F7CF53
:1003740008B10C7F026008B988940895F89400913C
:10038400630110916401011700F100916301109160
:1003940064011017E0F000916301109164010117EA
:1003A400C1F000916301109166010117A0F0009162
:1003B400630110916601101780F0009163011091A0
:1003C4006601011761F0789408953ED1DECF43D1E0
:1003D400E2CF48D1E6CF4AD1EACF4FD1EECF54D1C4
:1003E400F2CFA0E4B1E0E4E3F7E0403838F400E30E
:1003F4000D9307D0E4E3F7E054D0089501E30D939F
:10040400F8CF4C3030F1493140F1463250F14333AA
:1004140060F1403470F14C3480F1493590F1463646
:10042400A0F14337B0F14F37C0F14D3890F049395E
:10043400A0F0463AB0F0433BC0F0403CD0F04D3C15
:10044400E0F0493DF0F0463E00F1433F10F125C095
:10045400089500E30D930027FBCF01E30D9301E022
:10046400F7CF02E30D9302E0F3CF03E30D9303E030
:10047400EFCF04E30D9304E0EBCF05E30D9305E028
:10048400E7CF06E30D9306E0E3CF07E30D9307E020
:10049400DFCF08E30D9308E0DBCF09E30D9309E018
:1004A400D7CF0F93E00F1BF4F3950E1B0E2F000014
:1004B4000491041BE8E4F7E00F93E00F1BF4F395B9
:1004C4000E1B0E2F0000049100E3100F1C930895DF
:1004D4001ED04427EB2DFC2D4193BE2ECF2EE22DB2
:1004E400F32D41932E2E3F2EE42DF52D41934E2EC8
:1004F4005F2EE62DF72D41936E2E7F2E009167011E
:10050400039500936701083020F301D0089503E4B4
:10051400B02E01E0C02E0BE5202E01E0302E03E5C5
:10052400402E01E0502E0BE4602E01E0702E0027D7
:10053400009367010895009167010830F1F000917C
:10054400670103950093670168D0EB2DFC2D41935F
:10055400BE2ECF2E66D0E22DF32D41932E2E3F2EAC
:1005640064D0E42DF52D41934E2E5F2E62D0E62DFE
:10057400F72D41936E2E7F2E0895C9DFE0CF08E05A
:10058400E3E4F1E00F93019111271191010F222768
:10059400121F0A95D1F723E0000F111F2A95E1F7E6
:1005A4000F9110936301EBE5F1E00F930191112793
:1005B4001191010F2227121F0A95D1F723E0000F92
:1005C400111F2A95E1F70F9110936601E3E5F1E01D
:1005D4000F93019111271191010F2227121F0A95E0
:1005E400D1F723E0000F111F2A95E1F70F91109323
:1005F4006501EBE4F1E00F93019111271191010FD3
:100604002227121F0A95D1F723E0000F111F2A9504
:10061400E1F70F9110936401089532E066DD6CDD1B
:10062400089535E062DD68DD089535E05EDD64DD62
:10063400089533E05ADD60DD08950AB10F7900664C
:100644000AB910D021D0089505B1097F026005B917
:100654005CE357BD089505B1097F046005B95CE307
:1006640057BD08950027002707BD089505B1097FE8
:10067400026005B956E458BD089505B1097F0460C8
:1006840005B956E458BD08950027002708BD08950C
:10069400534F4C415220545241434B45520D0A0092
:1006A40048414349454E444F20454C2046555455F6
:1006B400524F0D0A00004C412054454E53494F4EB1
:1006C400204445204C412042415445524941204553
:1006D400533A200D00004C412054454E53494F4E8F
:1006E4002044454C2050414E454C2045533A200D62
:1006F40000004C4120424154455249412045535445
:100704004120444553434F4E454354414441210DF8
:100714000A00454C2050414E454C2045535441203D
:10072400444553434F4E45435441444F210D0A0021
:100734000C192633404C5966737F8D99A6B3C0CDEE
:10074400D9E6F3FF000102030304050607080809BC
:00000001FF
