:020000020000FC
:0400000019C058C00B
:04002400D2C031C154
:02001A004DC0D7
:100034000FEF0DBF04E00EBF1FD1CBD13ED24DD088
:100044000CD39DD0CBD3A3D17894E2E3F9E03CD197
:1000540088D100C0D6D1ECD1D8D1F0F0E3D1E6E517
:10006400F9E0C0E4D1E04DD17CD13FD2B3D241D24A
:1000740008F14CD2E4E7F9E0C8E4D1E042D171D10F
:100084001FD368D11DD366D165D11AD363D118D3D8
:1000940061D116D339D340D210D003B7007F0160A9
:1000A40003BF8895000003B70E7F006003BFD2CF63
:1000B4001895189571D125D2EFCF0EEE00938400D8
:1000C40005E80093850004E00093810000E00093BC
:1000D400800001E000936F00089534E630937C00C3
:1000E40036E830937A003CE330937E000895009123
:1000F4007C00007F032B00937C00089500917A001C
:10010400006C00937A0000917A0006FDFCCF0F7713
:1001140000937A003091780040917900089501D0DD
:10012400089554B1597F566054B9509180005C7061
:10013400516F5093800050918100507E5A605093CB
:10014400810000270093880000938A0000938900AF
:1001540000938B0008955AB1577F58605AB9509153
:10016400B0005C7C53625093B0005091B100587F52
:1001740052605093B10000270093B40008950F9388
:100184001F93AF93BF9300E00093C50007E600936D
:10019400C40002E00093C00006E00093C20008E936
:1001A4000093C10000E0802E01E0902EA0E0B1E0B9
:1001B40010E400270D931A95E9F7AA24BF91AF9193
:1001C4001F910F9108950FEF009376010091C600DF
:1001D4000137A9F00737B9F00536D9F00237F9F03D
:1001E400043711F1093729F10F3629F1003759F194
:1001F400053789F10936B9F10A37E9F11895E2E3CF
:10020400F9E062D0FBCFE6E5F9E0C0E4D1E079D0D3
:10021400F5CFE4E7F9E0C8E4D1E073D0EFCFEEE83E
:10022400F9E052D0B9D0EACFE4EAF9E04DD0C9D030
:10023400E5CF22D0E3CFE8EBF9E046D068ECDFD29B
:100244009BD00BD3DBCFE6EDF9E03ED068ECE6D2F1
:1002540093D003D3D3CFE4EFF9E036D068EC26D3C0
:100264008BD043D3CBCFE2E1FAE02ED068EC0FD3AE
:1002740083D03BD3C3CFDCCEEEE2FAE025D0002717
:100284000093760108950F931F930FB70F93AF93C5
:10029400BF93AA2069F0D4010D910093C600A03445
:1002A40020F0B13010F0A0E0B1E04D01AA9429F49F
:1002B4000091C1000F7D0093C100BF91AF910F91D8
:1002C4000FBF1F910F911895EF93FF93AF93BF93B7
:1002D4000F93D4010591002349F00D93A394A03406
:1002E400C8F3B130B8F3A0E0B1E0F4CF0091C1009D
:1002F40000620093C1000F91BF91AF91FF91EF9104
:100304000895EF93FF93AF93BF930F93D401059197
:10031400002349F00D93A394A034C8F3B130B8F38B
:10032400A0E0B1E0F4CF0991002349F00D93A39428
:10033400A034C8F3B130B8F3A0E0B1E0F4CF009139
:10034400C10000620093C1000F91BF91AF91FF9172
:10035400EF91089502E019E01A95F1F70A95E1F793
:10036400089503E018E028E72A95F1F71A95E1F7D4
:100374000A95D1F70895089505E11BE42FEB2A951A
:10038400F1F71A95E1F70A95D1F7000008950AB13B
:10039400077F086016D00895009176010F3F81F021
:1003A40004E62FD0463E20F44A3A20F4463920F49D
:1003B40072E3070F72E3070F77E3070F0093B400AC
:1003C4000895009176010F3FD9F300270093B400FC
:1003D40008950AB10F7600690AB91FD0A0E4B1E00C
:1003E40070E37D9370E37D937EE27D9370E37D9370
:1003F40076E57D937DE07D937AE07D9370E07C9358
:10040400089536E074DE7ADE089588944A3A10F04E
:1004140009D0089502D00894FCCF0BB10F76006187
:100424000BB908950BB10F7600680BB98894089541
:10043400A0E4B1E0E4E7FAE01127222732D056F035
:1004440013951A3010F011272395C6F771E37D93A5
:1004540075E37D93E4E7FAE0105320536AE0269FA6
:10046400202D120FE10F1BF4F3951E1B1E2F00000D
:100474001491141B7EE27D9320EA129F112D611BBF
:1004840070E3670F6A3359F06D9376E57D937DE0F1
:100494007D937AE07D9370E07C93E894089569E31A
:1004A400F3CF05910395401738F470E3170F70E309
:1004B400270F2D931D936894089507B10C7F036053
:1004C40007B91FD0A8E4B1E070E37D9370E37D9396
:1004D4007EE27D9370E37D9376E57D937DE07D936D
:1004E4007AE07D9370E07C93089537E000DE06DEC9
:1004F40008958894423310F009D0089502D00894E6
:10050400FCCF08B10C7F026008B9089508B10C7FD4
:10051400016008B98894089502DE00917001109179
:100524007101007F107F003F11F4011B81F00091E5
:10053400700110917101007F107F011718F1009173
:10054400700110917101007F107F101728F1009144
:10055400700110917301007F107F003F11F4011BA3
:1005640081F00091700110917301007F107F0117D9
:1005740038F10091700110917301007F107F101702
:10058400A8F00895011B0068602F39D1EADEE9DE86
:10059400E8DEE7DE62D1D3CF101B1068612F3ED1B5
:1005A400E0DEDFDEDEDEDDDE58D1D1CF101B1F6AD8
:1005B400612F6DD1D6DED5DED4DED3DE96D1E1CF88
:1005C400101B1F6A612F72D1CCDECBDECADEC9DEFE
:1005D4008CD1CFCFA8E4B1E0E4E5FAE011272227DB
:1005E40030D056F013951A3010F011272395C6F722
:1005F40071E37D9379E37D93E4E5FAE010532053AE
:100604006AE0269F202D120FE10F1BF4F3951E1BA9
:100614001E2F00001491141B7EE27D9322ED129F85
:10062400112D611B7FE2670F6D9376E57D937DE06D
:100634007D937AE07D9370E07C93E894089569E378
:10064400F3CF05910395401738F470E3170F70E367
:10065400270F2D931D93689408951ED04427E22DEF
:10066400F32D41932E2E3F2EEB2DFC2D4193BE2EC8
:10067400CF2EE62DF72D41936E2E7F2EE42DF52DF2
:1006840041934E2E5F2E00917401039500937401E3
:10069400083020F301D0089500E5202E01E0302E2B
:1006A40008E5402E01E0502E00E6602E01E0702E99
:1006B40008E6B02E01E0C02E0027009374010895CF
:1006C400009174010830F1F00091740103950093D6
:1006D400740174D0E22DF32D41932E2E3F2E7AD047
:1006E400E42DF52D41934E2E5F2E70D0E62DF72D7F
:1006F40041936E2E7F2E66D0EB2DFC2D4193BE2EA2
:10070400CF2E0895C9DFE0CF08E0E0E5F1E00F93D4
:10071400619111270A952227B8947191670F121FCE
:100724000A95D1F723E0169567952A95E1F7162FD8
:100734000F9110937001E8E5F1E00F936191112797
:100744000A952227B8947191670F121F0A95D1F761
:1007540023E0169567952A95E1F7162F0F911093CC
:100764007101E0E6F1E00F93619111270A952227C8
:10077400B8947191670F121F0A95D1F723E016956B
:1007840067952A95E1F7162F0F9110937201E8E609
:10079400F1E00F93619111270A952227B894719182
:1007A400670F121F0A95D1F723E0169567952A95CE
:1007B400E1F7162F0F9110937301089533E097DC3E
:1007C4009DDC089535E093DC99DC089534E08FDCFA
:1007D40095DC089532E08BDC91DC08950AB10F7941
:1007E40000660AB90BB10F790BB900270093880092
:1007F4000093890000938A0000938B000895509120
:1008040080005C705168509380000BB10F790064D4
:100814000BB900270093880010D0089550918000F0
:100824005C705168509380000BB10F7900620BB972
:1008340000270093880001D008957727739570935B
:10084400880070938A0086DD7A3A10F483DD82DDB5
:1008540081DD80DD761790F30895509180005C70FF
:100864005160509380000BB10F790BB970918800DF
:10087400709388007C3810F46DDD6CDD6BDD6ADD0F
:1008840069DD7A95A9F700270093880008955091AF
:1008940080005C705162509380000BB10F7900624C
:1008A4000BB9002700938A0010D00895509180005E
:1008B4005C705162509380000BB10F7900640BB9E6
:1008C400002700938A0001D00895772773957093C9
:1008D400880070938A003EDD7A3A10F43BDD3ADDFD
:1008E40039DD38DD761790F30895509180005C70FF
:1008F4005160509380000BB10F790BB970918A004D
:1009040070938A007A3A10F425DD24DD23DD22DD9C
:1009140021DD7A95A9F7002700938A0008956EEBEC
:100924006EDF2ADD29DD28DD27DD97DF0895534FAB
:100934004C415220545241434B45520D0A484143C5
:1009440049454E444F20454C2046555455524F0D71
:100954000A004C412054454E53494F4E20444520F3
:100964004C4120424154455249412045533A2000CC
:100974004C412054454E53494F4E2044454C205041
:10098400414E454C2045533A2000454E43454E4484
:1009940049535445204C41204C555A2E0D0A000011
:1009A4004150414741535445204C41204C555A2E07
:1009B4000D0A00005345204D4F56494F20454C2009
:1009C40050414E454C20414C20455354452E0D0A70
:1009D40000005345204D4F56494F20454C2050416F
:1009E4004E454C20414C204F455354452E0D0A0092
:1009F4005345204D4F56494F20454C2050414E45BC
:100A04004C20414C204E4F5254452E0D0A00534564
:100A1400204D4F56494F20454C2050414E454C20C7
:100A2400414C205355522E0D0A004772616369618F
:100A34007320706F72207573617220656C20534F40
:100A44004C415220545241434B4552210D0A00005F
:100A54000C192633404C5966737F8D99A6B3C0CDCB
:100A6400D9E6F3FF0001020304050506070809009F
:100A7400102030415161728292A3B3C3D4E4F4FFD5
:100A8400000101020303040505060707080909001C
:00000001FF
