:020000020000FC
:0400000019C04FC014
:04002400FAC062C1FB
:02001A0044C0E0
:100034000FEF0DBF04E00EBF49D14FD136D00CD223
:100044007FD247D04DD398D066D00BD47894E6EFC6
:10005400F9E06BD1C2D100C017D22DD219D298F0D9
:1000640024D286D2FAD288D2E0F093D2E7D11DD03E
:100074006AD3A1D168D39FD166D39DD164D39BD1D8
:1000840062D385D38CD215D003B7007F016003BF40
:100094008895000003B70E7F006003BFDDCF18957D
:1000A4001895B1D171D28ED4EECF00270093780188
:1000B40008950EEE0093840005E80093850004E0A3
:1000C4000093810000E00093800001E000936F0042
:1000D400089534E630937C0036E830937A003CE3AC
:1000E40030937E00089500917C00007F032B0093E1
:1000F4007C00089500917A00006C00937A000091CE
:100104007A0006FDFCCF0F7700937A0030917800D7
:1001140040917900089502D01BD0089554B1597FBD
:10012400566054B9509180005C70516F50938000B8
:1001340050918100507E5A605093810000270093B3
:10014400880000938A000093890000938B0008952F
:100154005AB1577F58605AB95091B0005C7C5362D1
:100164005093B0005091B100587F52605093B10049
:1001740000270093B40008950F931F93AF93BF9388
:1001840000E00093C50007E60093C40002E000937A
:10019400C00006E00093C20008E90093C10000E03B
:1001A400802E01E0902EA0E0B1E010E400270D9332
:1001B4001A95E9F7AA24BF91AF911F910F91089561
:1001C4000027009376011FD10FEF00937601E0E63C
:1001D400FAE0ABD03DC00027009376012FD10FEF9A
:1001E40000937601E6E7FAE0A0D028D131C0E6EF2B
:1001F400F9E09BD02DC0E8E2FAE0C0E4D1E0B2D04F
:1002040027C0E6E4FAE0C8E4D1E0ACD021C05ED077
:100214001FC063D01DC00091C600013741F30737EA
:1002240051F3053671F3023759F20437A1F2093755
:1002340071F30C3671F30F3669F00037D1F00537DE
:1002440039F10936A1F10A3721F0E2E6FBE06DD07D
:100254001895EECE002700937701EAE8FAE065D01E
:100264006CED10D3C5D0C4D079D30FEF00937701D0
:10027400EFCF002700937701E8EAFAE056D06EEB5F
:1002840014D3B6D0B5D06AD30FEF00937701E0CF83
:10029400002700937701E6ECFAE047D06EEB3BD3FE
:1002A400A7D0A6D075D30FEF00937701D1CF002745
:1002B40000937701E4EEFAE038D06EEB19D398D0CE
:1002C40097D066D30FEF00937701C2CFE0E0FBE055
:1002D4002CD00027009376010895EEE2FBE025D0B0
:1002E40000270093770108950F931F930FB70F937F
:1002F400AF93BF93AA2069F0D4010D910093C60077
:10030400A03420F0B13010F0A0E0B1E04D01AA9487
:1003140029F40091C1000F7D0093C100BF91AF91FA
:100324000F910FBF1F910F911895EF93FF93AF9308
:10033400BF930F93D4010591002349F00D93A39427
:10034400A034C8F3B130B8F3A0E0B1E0F4CF009129
:10035400C10000620093C1000F91BF91AF91FF9162
:10036400EF910895EF93FF93AF93BF930F93D4014D
:100374000591002349F00D93A394A034C8F3B13040
:10038400B8F3A0E0B1E0F4CF0991002349F00D9354
:10039400A394A034C8F3B130B8F3A0E0B1E0F4CF33
:1003A4000091C10000620093C1000F91BF91AF9111
:1003B400FF91EF91089502E019E01A95F1F70A957B
:1003C400E1F7089522E034E04BEB4A95F1F73A95D2
:1003D400E1F72A95D1F70000089503E018E028E733
:1003E4002A95F1F71A95E1F70A95D1F7089508953A
:1003F40005E11BE42FEB2A95F1F71A95E1F70A952D
:10040400D1F700000895009176010F3FB1F05091AB
:10041400B0005C7C53625093B00036D004E6463E94
:1004240020F44A3A20F4463920F472E3070F72E3C9
:10043400070F77E3070F0093B40008950091760146
:100444000F3FD9F35091B0005C7C53605093B000DF
:1004540000270093B40008950AB10F7600690AB921
:100464001FD0A0E4B1E070E37D9370E37D937EE25E
:100474007D9370E37D9376E57D937DE07D937AE0D3
:100484007D9370E07C93089536E02DDE33DE08958D
:1004940088944A3A10F009D0089502D00894FCCF09
:1004A4000BB10F7600610BB908950BB10F7600689C
:1004B4000BB988940895A0E4B1E0E6EAFBE01127C3
:1004C400222732D056F013951A3010F011272395B5
:1004D400C6F771E37D9375E37D93E6EAFBE0105381
:1004E40020536AE0269F202D120FE10F1BF4F39591
:1004F4001E1B1E2F00001491141B7EE27D9320EA24
:10050400129F112D611B70E3670F6A3359F06D93CD
:1005140076E57D937DE07D937AE07D9370E07C9336
:10052400E894089569E3F3CF05910395401738F4EF
:1005340070E3170F70E3270F2D931D9368940895AC
:1005440007B10C7F036007B91FD0A8E4B1E070E3E2
:100554007D9370E37D937EE27D9370E37D9376E5F6
:100564007D937DE07D937AE07D9370E07C930895A4
:1005740037E0B9DDBFDD089588944E3110F009D01D
:10058400089502D00894FCCF08B10C7F026008B92A
:10059400089508B10C7F016008B988940895BEDD00
:1005A4000091700110917101007F107F003F11F4E0
:1005B400011B81F00091700110917101007F107F87
:1005C400011718F10091700110917101007F107FE3
:1005D400101728F10091700110917301007F107FB2
:1005E400003F11F4011B81F000917001109173011F
:1005F400007F107F011738F1009170011091730191
:10060400007F107F1017A8F00895011B0068602F69
:1006140039D1E3DEE2DEE1DEE0DEA0D1D3CF101B90
:100624001068612F42D1D9DED8DED7DED6DE96D16E
:10063400D1CF101B1F6A612F5BD1CFDECEDECDDEA2
:10064400CCDEA6D1E1CF101B1F6A612F64D1C5DEB9
:10065400C4DEC3DEC2DE9CD1CFCFA8E4B1E0E6E8BD
:10066400FBE01127222730D056F013951A3010F0F2
:1006740011272395C6F771E37D9379E37D93E6E82B
:10068400FBE0105320536AE0269F202D120FE10F48
:100694001BF4F3951E1B1E2F00001491141B7EE205
:1006A4007D9322ED129F112D611B7FE2670F6D93E5
:1006B40076E57D937DE07D937AE07D9370E07C9395
:1006C400E894089569E3F3CF05910395401738F44E
:1006D40070E3170F70E3270F2D931D93689408950B
:1006E4001ED04427E22DF32D41932E2E3F2EEB2DC9
:1006F400FC2D4193BE2ECF2EE62DF72D41936E2E69
:100704007F2EE42DF52D41934E2E5F2E0091740122
:10071400039500937401083020F301D0089500E597
:10072400202E01E0302E08E5402E01E0502E00E698
:10073400602E01E0702E08E6B02E01E0C02E0027E6
:10074400009374010895009174010830F1F0009150
:10075400740103950093740174D0E22DF32D419339
:100764002E2E3F2E7AD0E42DF52D41934E2E5F2E62
:1007740070D0E62DF72D41936E2E7F2E66D0EB2D93
:10078400FC2D4193BE2ECF2E0895C9DFE0CF08E0A3
:10079400E0E5F1E00F93619111270A952227B894BF
:1007A4007191670F121F0A95D1F723E0169567958B
:1007B4002A95E1F7162F0F9110937001E8E5F1E007
:1007C4000F93619111270A952227B8947191670FAD
:1007D400121F0A95D1F723E0169567952A95E1F73C
:1007E400162F0F9110937101E0E6F1E00F936191E0
:1007F40011270A952227B8947191670F121F0A9541
:10080400D1F723E0169567952A95E1F7162F0F91F6
:1008140010937201E8E6F1E00F93619111270A95B4
:100824002227B8947191670F121F0A95D1F723E01C
:10083400169567952A95E1F7162F0F91109373017A
:10084400089533E050DC56DC089535E04CDC52DC8E
:10085400089534E048DC4EDC089532E044DC4ADCA0
:1008640008950AB10F7900660AB90BB10F790BB973
:100874000027009388000093890000938A00009366
:100884008B000895009177010F3F09F1509180008A
:100894005C705168509380000BB10F7900640BB900
:1008A40000270093880014D00895009177010F3F2A
:1008B40071F0509180005C705168509380000BB1CE
:1008C4000F7900620BB900270093880001D00895C6
:1008D400772773957093880070938A006CDD7A3A59
:1008E40010F469DD68DD67DD66DD761790F3089541
:1008F400009177010F3F59F3509180005C70516271
:10090400509380000BB10F7900620BB9002700935C
:100914008A0014D00895009177010F3FC1F25091DD
:1009240080005C705162509380000BB10F790064B9
:100934000BB9002700938A0001D008957727739597
:100944007093880070938A0036DD7A3A10F433DDB0
:1009540032DD31DD30DD761790F30895509180005B
:100964005C705160509380000BB10F790BB970919A
:100974008800709388007C3810F41DDD1CDD1BDDBD
:100984001ADD19DD7A95A9F70027009388000895E8
:10099400509180005C705160509380000BB10F79CE
:1009A4000BB970918A0070938A007A3A10F403DDCF
:1009B40002DD01DD00DDFFDC7A95A9F70027009355
:1009C4008A000895009178010F3F91F00FEF009392
:1009D400780160EF57DF0CDD0BDD0ADD09DD08DD92
:1009E40007DD06DD05DD04DD03DD02DD01DDB6DF47
:1009F40008954249454E56454E49444F210D0A47F4
:100A040052414349415320504F52205553415220A3
:100A1400454C20534F4C415220545241434B455274
:100A2400210D0A004C412054454E53494F4E204459
:100A340045204C4120424154455249412045533AB6
:100A440020004C412054454E53494F4E2044454CC0
:100A54002050414E454C2045533A2000454E4345D5
:100A64004E4449535445204C41204C555A2E0D0AAE
:100A740000004150414741535445204C41204C55BE
:100A84005A2E0D0A00005345204D4F56494F20451C
:100A94004C2050414E454C20414C20455354452E4A
:100AA4000D0A00005345204D4F56494F20454C2018
:100AB40050414E454C20414C204F455354452E0D3A
:100AC4000A005345204D4F56494F20454C20504174
:100AD4004E454C20414C204E4F5254452E0D0A0099
:100AE4005345204D4F56494F20454C2050414E45CB
:100AF4004C20414C205355522E0D0A004C41204CA1
:100B0400555A2050415341204120434F4E54524F97
:100B14004C41525345204155544F4D415449434152
:100B24004D454E54452E0D0A00004C4F53204D4F59
:100B3400544F52455320504153414E204120434F7E
:100B44004E54524F4C41525345204155544F4D4100
:100B5400544943414D454E54452E0D0A0000454C21
:100B640020434F4D414E444F20494E475245534137
:100B7400444F20455320494E56414C49444F210D82
:100B84000A000C192633404C5966737F8D99A6B31D
:100B9400C0CDD9E6F3FF00010203040505060708EA
:100BA4000900102030415161728292A3B3C3D4E48E
:100BB400F4FF000101020303040505060707080901
:020BC400090026
:00000001FF
