:020000020000FC
:0400000019C055C00E
:04002400D0C0FEC08A
:02001A004AC0DA
:100034000FEF0DBF04E00EBFEFD086D1F9D15FD032
:10004400C5D29BD08CD3789401C076D195D1ABD155
:1000540097D1F8F0A2D1E8ECF8E0C0E4D1E01ED1E9
:100064004DD1FED171D200D250F10BD2E6EEF8E0C0
:10007400C8E4D1E013D142D1E4D239D1E2D237D1AC
:1000840036D1DFD234D1DDD232D1DBD2FED259D057
:10009400FED125D003B7007F016003BF889500001F
:1000A40003B70E7F006003BFD1CF18951895009158
:1000B4007901002371F7E2E2F9E0D3D0EACFDCD191
:1000C400E8CF0AB10B7F0AB9009169000C7F016087
:1000D400009369000DB30C7F01600DBB08950EEE13
:1000E4000093840005E80093850004E000938100F8
:1000F40000E00093800001E000936F00089534E66F
:1001040030937C0036E830937A003CE330937E00F1
:10011400089500917C00007F032B00937C000895D8
:1001240000917A00006C00937A0000917A0006FD39
:10013400FCCF0F7700937A003091780040917900DA
:10014400089501D0089554B1597F566054B950911F
:1001540080005C70516F5093800050918100507EFC
:100164005A605093810000270093880000938A000E
:100174000093890000938B0008950F931F93AF930E
:10018400BF9300E00093C50007E60093C40002E0BB
:100194000093C00006E00093C20008E90093C10088
:1001A40000E0802E01E0902EA0E0B1E010E40027F2
:1001B4000D931A95E9F7AA24BF91AF911F910F915E
:1001C40008950091C6000137D9F0023369F0033372
:1001D40089F00433D9F00533D9F00633D9F01895F2
:1001E400E4EAF8E03ED0FBCFE8ECF8E0C0E4D1E08C
:1001F40055D0F5CFE6EEF8E0C8E4D1E04FD0EFCF2C
:10020400E0E0F9E0C0E7D1E049D0E9CF8DD0E7CF15
:1002140093D0E5CF01D0E3CF00270093790108956F
:100224000F931F930FB70F93AF93BF93AA2069F057
:10023400D4010D910093C600A03420F0B13010F029
:10024400A0E0B1E04D01AA9429F40091C1000F7D12
:100254000093C100BF91AF910F910FBF1F910F91F8
:100264001895EF93FF93AF93BF930F93D401059128
:10027400002349F00D93A394A034C8F3B130B8F32C
:10028400A0E0B1E0F4CF0091C10000620093C1008E
:100294000F91BF91AF91FF91EF910895EF93FF9369
:1002A400AF93BF930F93D4010591002349F00D93AD
:1002B400A394A034C8F3B130B8F3A0E0B1E0F4CF14
:1002C4000991002349F00D93A394A034C8F3B130ED
:1002D400B8F3A0E0B1E0F4CF0091C1000062009354
:1002E400C1000F91BF91AF91FF91EF91089502E08A
:1002F40019E01A95F1F70A95E1F7089503E018E07B
:1003040028E72A95F1F71A95E1F70A95D1F70895A8
:10031400089505E11BE42FEB2A95F1F71A95E1F70F
:100324000A95D1F700000895009179010F3F19F063
:100334000FEF0093B4000895009179010F3FD9F3B2
:1003440000270093B40008950AB10F7600690AB932
:100354001FD0A0E4B1E070E37D9370E37D937EE26F
:100364007D9370E37D9376E57D937DE07D937AE0E4
:100374007D9370E07C93089536E0CBDED1DE089562
:1003840088944A3A10F009D0089502D00894FCCF1A
:100394000BB10F7600610BB908950BB10F760068AD
:1003A4000BB988940895A0E4B1E0E0E6F9E01127E0
:1003B400222732D056F013951A3010F011272395C6
:1003C400C6F771E37D9375E37D93E0E6F9E010539E
:1003D40020536AE0269F202D120FE10F1BF4F395A2
:1003E4001E1B1E2F00001491141B7EE27D9320EA35
:1003F400129F112D611B70E3670F6A3359F06D93DF
:1004040076E57D937DE07D937AE07D9370E07C9347
:10041400E894089569E3F3CF05910395401738F400
:1004240070E3170F70E3270F2D931D9368940895BD
:1004340007B10C7F036007B91FD0A8E4B1E070E3F3
:100444007D9370E37D937EE27D9370E37D9376E507
:100454007D937DE07D937AE07D9370E07C930895B5
:1004640037E057DE5DDE08958894423310F009D0FA
:10047400089502D00894FCCF08B10C7F026008B93B
:10048400089508B10C7F016008B98894089500911B
:10049400700110917101007F107F003F11F4011B66
:1004A40081F00091700110917101007F107F01179C
:1004B40018F10091700110917101007F107F1017E5
:1004C40028F10091700110917301007F107F003FAB
:1004D40011F4011B81F00091700110917301007FF0
:1004E400107F011738F10091700110917301007FA2
:1004F400107F1017A8F00895011B0068602F40D1E9
:10050400FDDEFCDEFBDEFADE77D1D3CF101B1068F4
:10051400612F45D1F3DEF2DEF1DEF0DE6DD1D1CF15
:10052400101B1F6A612F4AD1E9DEE8DEE7DEE6DE52
:100534007DD1E1CF101B1F6A612F4FD1DFDEDEDEDC
:10054400DDDEDCDE73D1CFCFA8E4B1E0E0E4F9E096
:10055400112722272FD056F013951A3010F01127A7
:100564002395C6F771E37D9379E37D93E0E4F9E0A5
:10057400105320536AE0269F202D120FE10F1BF425
:10058400F3951E1B1E2F00001491141B7EE27D9315
:10059400611B71E3670F6A3359F06D9376E57D93C0
:1005A4007DE07D937AE07D9370E07C93E8940895F8
:1005B40069E3F3CF05910395401738F470E3170FFF
:1005C40070E3270F2D931D936894089526D0442734
:1005D400E22DF32D41932E2E3F2EEB2DFC2D419336
:1005E400BE2ECF2EE62DF72D41936E2E7F2EE42DB9
:1005F400F52D41934E2E5F2E0091770103950093C4
:100604007701083020F309D0A4E7B1E07DE07D93C1
:100614007AE07D9370E07C93089500E5202E01E05C
:10062400302E08E5402E01E0502E00E6602E01E059
:10063400702E08E6B02E01E0C02E0027009377014B
:100644000895009177010830F1F000917701039546
:100654000093770174D0E22DF32D41932E2E3F2E7B
:100664007AD0E42DF52D41934E2E5F2E70D0E62DD9
:10067400F72D41936E2E7F2E66D0EB2DFC2D4193EA
:10068400BE2ECF2E0895C9DFE0CF08E0E0E5F1E00B
:100694000F93619111270A952227B8947191670FDE
:1006A400121F0A95D1F723E0169567952A95E1F76D
:1006B400162F0F9110937001E8E5F1E00F9361910B
:1006C40011270A952227B8947191670F121F0A9572
:1006D400D1F723E0169567952A95E1F7162F0F9128
:1006E40010937101E0E6F1E00F93619111270A95EF
:1006F4002227B8947191670F121F0A95D1F723E04E
:10070400169567952A95E1F7162F0F9110937201AC
:10071400E8E6F1E00F93619111270A952227B89436
:100724007191670F121F0A95D1F723E0169567950B
:100734002A95E1F7162F0F9110937301089533E072
:10074400E8DCEEDC089535E0E4DCEADC089534E02E
:10075400E0DCE6DC089532E0DCDCE2DC08950AB19A
:100764000F7900660AB90BB10F790BB90027009312
:1007740088000093890000938A0000938B000895F9
:10078400509180005C705168509380000BB10F79D8
:1007940000640BB900270093880062D0089550913B
:1007A40080005C705168509380000BB10F79006237
:1007B4000BB900270093880053D00895509180000E
:1007C4005C705162509380000BB10F7900620BB9D9
:1007D400002700938A0054D00895509180005C70E3
:1007E4005162509380000BB10F7900640BB900275C
:1007F40000938A0045D00895509180005C70516048
:10080400509380000BB10F790BB9709188007093ED
:1008140088007C3810F46BDD6ADD69DD68DD67DD36
:100824007A95A9F7002700938800089550918000D5
:100834005C705160509380000BB10F790BB97091CB
:100844008A0070938A007A3A10F451DD50DD4FDD4E
:100854004EDD4DDD7A95A9F7002700938A000895AF
:10086400772773957093880070938A0040DD7A3AF5
:1008740010F43DDD3CDD3BDD3ADD761790F3089561
:10088400772773957093880070938A0030DD7A3AE5
:1008940010F42DDD2CDD2BDD2ADD761790F3089581
:1008A400534F4C415220545241434B45520D0A4838
:1008B400414349454E444F20454C204655545552DA
:1008C4004F0D0A004C412054454E53494F4E20448D
:1008D40045204C4120424154455249412045533A18
:1008E40020004C412054454E53494F4E2044454C22
:1008F4002050414E454C2045533A200000004C41C5
:1009040020424154455249412045535441204445D5
:1009140053434F4E454354414441210D0A00454C35
:100924002050414E454C20455354412044455343A7
:100934004F4E45435441444F210D0A000C192633B0
:10094400404C5966737F8D99A6B3C0CDD9E6F3FFA9
:1009540000010203040505060708090010203041C0
:100964005161728292A3B3C3D4E4F4FF0001010283
:0C09740003030405050607070809090035
:00000001FF
