:020000020000FC
:0400000019C04AC019
:04002400C7C0F5C09C
:02001A003FC0E5
:100034000FEF0DBF04E00EBF49D0E5D082D1B0D19F
:1000440055D076D073D290D03AD3789403C071D17E
:10005400789400C0A6D2C9D2E8EAF7E0C0E7D1E0BC
:1000640014D1CDD142D141D1F5CF40983ED1409A5F
:100074003CD1F0CF419839D1419A37D1EBCF5F9839
:1000840034D15F9A32D1E6CF5C982FD15C9A2DD1CE
:10009400E1CFE0CF18951895009179010023C9F7B5
:1000A400EAECF7E0D5D0F5CF75D19ED12FD1F1CFC1
:1000B4000AB10B7F0AB9009169000C7F01600093BB
:1000C40069000DB30C7F01600DBB08950EEE009323
:1000D400840005E80093850004E00093810000E0BB
:1000E4000093800001E000936F00089534E630939C
:1000F4007C0036E830937A003CE330937E00089528
:1001040000917C00007F032B00937C0008950091F4
:100114007A00006C00937A0000917A0006FDFCCF0F
:100124000F7700937A003091780040917900089518
:1001340001D0089554B1597F566054B9509180004C
:100144005C70516F5093800050918100507E5A60D2
:100154005093810000270093880000938A00009345
:10016400890000938B0008950F931F93AF93BF935F
:1001740000E00093C50007E60093C40002E000938A
:10018400C00006E00093C20008E90093C10000E04B
:10019400802E01E0902EA0E0B1E010E400270D9342
:1001A4001A95E9F7AA24BF91AF911F910F91089571
:1001B4000091C6000137D9F0023369F0033389F0A6
:1001C4000433D9F00533D9F00633D9F01895ECE4AB
:1001D400F7E03ED0FBCFE0E7F7E0C0E4D1E055D054
:1001E400F5CFEEE8F7E0C8E4D1E04FD0EFCFE8EA8E
:1001F400F7E0C0E7D1E049D0E9CF93D0E7CF99D079
:10020400E5CF01D0E3CF00270093790108950F9340
:100214001F930FB70F93AF93BF93AA2069F0D40134
:100224000D910093C600A03420F0B13010F0A0E08E
:10023400B1E04D01AA9429F40091C1000F7D00930F
:10024400C100BF91AF910F910FBF1F910F911895EE
:10025400EF93FF93AF93BF930F93D40105910023C2
:1002640049F00D93A394A034C8F3B130B8F3A0E0DF
:10027400B1E0F4CF0091C10000620093C1000F917E
:10028400BF91AF91FF91EF910895EF93FF93AF93D7
:10029400BF930F93D4010591002349F00D93A394C8
:1002A400A034C8F3B130B8F3A0E0B1E0F4CF0991C1
:1002B400002349F00D93A394A034C8F3B130B8F3EC
:1002C400A0E0B1E0F4CF0091C10000620093C1004E
:1002D4000F91BF91AF91FF91EF91089522E039E022
:1002E4003A95F1F72A95E1F708952F933F934F93A9
:1002F40023E038E048E74A95F1F73A95E1F72A9583
:10030400D1F74F913F912F910895089525E13BE452
:100314004FEB4A95F1F73A95E1F72A95D1F70000AA
:100324000895009179010F3F19F00FEF0093B40085
:100334000895009179010F3FD9F300270093B40089
:1003440008950AB10F7600690AB91FD0A0E4B1E09C
:1003540000E30D9300E30D930EE20D9300E30D9380
:1003640006E50D930DE00D930AE00D9300E00C9368
:10037400089536E0C5DECBDE089588944A3A10F03D
:1003840009D0089502D00894FCCF0BB10F76006118
:100394000BB908950BB10F7600680BB988940895D2
:1003A40007B10C7F036007B91FD0A8E4B1E000E3F4
:1003B4000D9300E30D930EE20D9300E30D9306E518
:1003C4000D930DE00D930AE00D9300E00C93089556
:1003D40037E096DE9CDE08958894423310F009D00D
:1003E400089502D00894FCCF08B10C7F026008B9CC
:1003F400089508B10C7F016008B988940895F894B1
:100404000091700110917101011760F093D17EDFAA
:100414000091700110917101101758F08BD176DFA3
:1004240078940895011B000F102F7AD15EDF5DDFF1
:10043400EDCF101B110F6AD158DF57DFEFCFA8E4BF
:10044400B1E0E8EEF7E0403838F400E30D9307D06C
:10045400E8EEF7E054D0089501E30D93F8CF4C3063
:1004640030F1493140F1463250F1433360F14034C8
:1004740070F14C3480F1493590F14636A0F14337A0
:10048400B0F14F37C0F14D3890F04939A0F0463AF9
:10049400B0F0433BC0F0403CD0F04D3CE0F0493D6F
:1004A400F0F0463E00F1433F10F125C0089500E30B
:1004B4000D930027FBCF01E30D9301E0F7CF02E397
:1004C4000D9302E0F3CF03E30D9303E0EFCF04E3D6
:1004D4000D9304E0EBCF05E30D9305E0E7CF06E3CE
:1004E4000D9306E0E3CF07E30D9307E0DFCF08E3C6
:1004F4000D9308E0DBCF09E30D9309E0D7CF0F9309
:10050400E00F1BF4F3950E1B0E2F00000491041B47
:10051400ECEFF7E00F93E00F1BF4F3950E1B0E2F97
:100524000000049170E3170F1C93089526D044270C
:10053400E22DF32D41932E2E3F2EEB2DFC2D4193D6
:10054400BE2ECF2EE62DF72D41936E2E7F2EE42D59
:10055400F52D41934E2E5F2E009177010395009364
:100564007701083020F309D0A4E7B1E00DE00D9342
:100574000AE00D9300E00C93089500E5202E01E0BD
:10058400302E08E5402E01E0502E00E6602E01E0FA
:10059400702E08E6B02E01E0C02E002700937701EC
:1005A4000895009177010830F1F0009177010395E7
:1005B4000093770174D0E22DF32D41932E2E3F2E1C
:1005C4007AD0E42DF52D41934E2E5F2E70D0E62D7A
:1005D400F72D41936E2E7F2E66D0EB2DFC2D41938B
:1005E400BE2ECF2E0895C9DFE0CF08E0E0E5F1E0AC
:1005F4000F93619111270A952227B8947191670F7F
:10060400121F0A95D1F723E0169567952A95E1F70D
:10061400162F0F9110937001E8E5F1E00F936191AB
:1006240011270A952227B8947191670F121F0A9512
:10063400D1F723E0169567952A95E1F7162F0F91C8
:1006440010937101E0E6F1E00F93619111270A958F
:100654002227B8947191670F121F0A95D1F723E0EE
:10066400169567952A95E1F7162F0F91109372014D
:10067400E8E6F1E00F93619111270A952227B894D7
:100684007191670F121F0A95D1F723E016956795AC
:100694002A95E1F7162F0F9110937301089533E013
:1006A4002FDD35DD089535E02BDD31DD089534E0AF
:1006B40027DD2DDD089532E023DD29DD08950AB11B
:1006C4000F7900660AB90BB10F790BB900270093B3
:1006D40088000093890000938A0000938B0008959A
:1006E4000BB10F7900640BB9002700938A000AEA62
:1006F4000093880008950BB10F7900620BB90027AD
:1007040000938A000AEA0093880008950BB10F79D8
:1007140000620BB900270093880010938A000895A3
:100724000BB10F7900640BB9002700938800109374
:100734008A00089500270093880000938A000BB173
:100744000F7900600BB90895534F4C415220545215
:1007540041434B45520D0A48414349454E444F20BD
:10076400454C2046555455524F0D0A004C412054D7
:10077400454E53494F4E204445204C41204241545C
:10078400455249412045533A20004C412054454E9E
:1007940053494F4E2044454C2050414E454C204532
:1007A400533A200000004C412042415445524941F3
:1007B400204553544120444553434F4E45435441EF
:1007C4004441210D0A00454C2050414E454C2045E2
:1007D40053544120444553434F4E45435441444FA1
:1007E400210D0A000C192633404C5966737F8D99EC
:1007F400A6B3C0CDD9E6F3FF000102030304050646
:0408040007080809D0
:00000001FF
