:020000020000FC
:0400000019C04DC016
:04002400CAC0F8C096
:02001A0042C0E2
:100034000FEF0DBF04E00EBF03C078D1789400C069
:1000440044EDABD1E6E7F8E0C0E4D1E021D150D1F2
:100054004FD1F6CFF5CFF4CF40984AD1409A48D14A
:10006400EFCF419845D1419A43D1EACF5F9840D12F
:100074005F9A3ED1E5CF5C983BD15C9A39D1E0CF11
:10008400FAD127D003B7007F016003BF8895000031
:1000940003B70E7F006003BFD3CF18951895009166
:1000A4007901002369F7E0EDF8E0D5D0E9CF6FD10D
:1000B400DDD129D1E5CF0AB10B7F0AB900916900DE
:1000C4000C7F0160009369000DB30C7F01600DBBD0
:1000D40008950EEE0093840005E80093850004E083
:1000E4000093810000E00093800001E000936F0022
:1000F400089534E630937C0036E830937A003CE38C
:1001040030937E00089500917C00007F032B0093C0
:100114007C00089500917A00006C00937A000091AD
:100124007A0006FDFCCF0F7700937A0030917800B7
:1001340040917900089501D0089554B1597F5660D3
:1001440054B9509180005C70516F5093800050916D
:100154008100507E5A6050938100002700938800EC
:1001640000938A000093890000938B0008950F93F5
:100174001F93AF93BF9300E00093C50007E600937D
:10018400C40002E00093C00006E00093C20008E946
:100194000093C10000E0802E01E0902EA0E0B1E0C9
:1001A40010E400270D931A95E9F7AA24BF91AF91A3
:1001B4001F910F9108950091C6000137D9F00233C1
:1001C40069F0033389F00433D9F00533D9F00633E9
:1001D400D9F01895E2E5F8E03ED0FBCFE6E7F8E089
:1001E400C0E4D1E055D0F5CFE4E9F8E0C8E4D1E0CB
:1001F4004FD0EFCFEEEAF8E0C0E7D1E049D0E9CF45
:100204008DD0E7CF93D0E5CF01D0E3CF0027009383
:10021400790108950F931F930FB70F93AF93BF9373
:10022400AA2069F0D4010D910093C600A03420F0F7
:10023400B13010F0A0E0B1E04D01AA9429F400918E
:10024400C1000F7D0093C100BF91AF910F910FBF0B
:100254001F910F911895EF93FF93AF93BF930F9353
:10026400D4010591002349F00D93A394A034C8F35D
:10027400B130B8F3A0E0B1E0F4CF0091C100006266
:100284000093C1000F91BF91AF91FF91EF91089539
:10029400EF93FF93AF93BF930F93D4010591002382
:1002A40049F00D93A394A034C8F3B130B8F3A0E09F
:1002B400B1E0F4CF0991002349F00D93A394A03445
:1002C400C8F3B130B8F3A0E0B1E0F4CF0091C100BD
:1002D40000620093C1000F91BF91AF91FF91EF9124
:1002E400089502E019E01A95F1F70A95E1F70895E7
:1002F40003E018E028E72A95F1F71A95E1F70A9543
:10030400D1F70895089505E11BE42FEB2A95F1F741
:100314001A95E1F70A95D1F7000008950091790143
:100324000F3F19F00FEF0093B40008950091790185
:100334000F3FD9F300270093B40008950AB10F7654
:1003440000690AB91FD0A0E4B1E070E37D9370E3C3
:100354007D937EE27D9370E37D9376E57D937DE0EE
:100364007D937AE07D9370E07C93089536E0CBDE54
:10037400D1DE089588944A3A10F009D0089502D045
:100384000894FCCF0BB10F7600610BB908950BB143
:100394000F7600680BB988940895A0E4B1E0EEE00C
:1003A400F9E01127222732D056F013951A3010F0B5
:1003B40011272395C6F771E37D9375E37D93EEE0F2
:1003C400F9E0105320536AE0269F202D120F1F934B
:1003D400E10F1BF4F3951E1B1E2F00001491141B38
:1003E4007EE27D9320EA129F112D611B70E3670F5B
:1003F4006A3351F06D9376E57D937DE07D937AE0E9
:100404007D9370E07C93089569E3F4CF059103959F
:10041400401738F470E3170F70E3270F2D931D93E3
:100424006894089507B10C7F036007B91FD0A8E44E
:10043400B1E070E37D9370E37D937EE27D9370E39E
:100444007D9376E57D937DE07D937AE07D9370E006
:100454007C93089537E057DE5DDE08958894423337
:1004640010F009D0089502D00894FCCF08B10C7F95
:10047400026008B9089508B10C7F016008B9889436
:1004840008950091700110917101007F107F003F69
:1004940011F4011B81F00091700110917101007F32
:1004A400107F011748F00091700110917101007FD5
:1004B400107F101758F00895011B0068602F33D186
:1004C40017DF16DF7CD11FDF1EDFEDCF101B106896
:1004D400612F3CD10DDF0CDF72D115DF14DFEBCFC0
:1004E400A8E4B1E0EEEEF8E062E11127222736D06D
:1004F40013951A3010F0112723956A95C1F771E30B
:100504007D9379E37D93EEEEF8E0105320536AE097
:10051400269F202D120F1F93E10F1BF4F3951E1B32
:100524001E2F00001491141B6FE0611BE2E0F9E040
:100534006F93E60F1BF4F3956E1B6E2F000004916E
:1005440070E3070F7EE27D930D9376E57D937DE066
:100554007D937AE07D9370E07D93089505910395F2
:10056400401730F470E3170F70E3270F2D931D939A
:10057400089526D04427E22DF32D41932E2E3F2EAD
:10058400EB2DFC2D4193BE2ECF2EE62DF72D41935E
:100594006E2E7F2EE42DF52D41934E2E5F2E00916D
:1005A4007701039500937701083020F309D0A4E77D
:1005B400B1E07DE07D937AE07D9370E07C930895D3
:1005C40000E5202E01E0302E08E5402E01E0502EFB
:1005D40000E6602E01E0702E08E6B02E01E0C02E89
:1005E4000027009377010895009177010830F1F016
:1005F4000091770103950093770174D0E22DF32DD8
:1006040041932E2E3F2E7AD0E42DF52D41934E2E7C
:100614005F2E70D0E62DF72D41936E2E7F2E66D07F
:10062400EB2DFC2D4193BE2ECF2E0895C9DFE0CFD4
:1006340008E0E0E5F1E00F93619111270A95222784
:10064400B8947191670F121F0A95D1F723E016959C
:1006540067952A95E1F7162F0F9110937001E8E53D
:10066400F1E00F93619111270A952227B8947191B3
:10067400670F121F0A95D1F723E0169567952A95FF
:10068400E1F7162F0F9110937101E0E6F1E00F935B
:10069400619111270A952227B8947191670F121F4F
:1006A4000A95D1F723E0169567952A95E1F7162F59
:1006B4000F9110937201E8E6F1E00F936191112715
:1006C4000A952227B8947191670F121F0A95D1F7E2
:1006D40023E0169567952A95E1F7162F0F9110934D
:1006E4007301089533E00FDD15DD089535E00BDD6A
:1006F40011DD089534E007DD0DDD089532E003DDFA
:1007040009DD08950AB10F7900660AB90BB10F79B2
:100714000BB90027009388000093890000938A0096
:1007240000938B000895509180005C705168509341
:1007340080000BB10F7900640BB900270093890086
:1007440000938A0000938B0072D00895509180002A
:100754005C705168509380000BB10F7900620BB943
:1007640000270093890000938A0000938B005FD0D8
:100774000895509180005C705162509380000BB1D9
:100784000F7900620BB90027009388000093890059
:1007940000938B000895509180005C7051625093D7
:1007A40080000BB10F7900640BB900270093880017
:1007B4000093890000938B0010938A000895509150
:1007C40080005C705160509380000BB10F790BB9BD
:1007D40070918A0070938A007C3810F482DD81DD88
:1007E40080DD7FDD7EDD7A95A9F700270093880000
:1007F400009389000895509180005C70516050937B
:1008040080000BB10F790BB9709188007093880048
:100814007C3810F466DD65DD64DD63DD62DD7A95C8
:10082400A9F7002700938A0000938B000895772787
:1008340073957093880070938A0053DD763910F4B1
:1008440050DD4FDD4EDD4DDD761790F30895534FA7
:100854004C415220545241434B45520D0A484143A6
:1008640049454E444F20454C2046555455524F0D52
:100874000A004C412054454E53494F4E20444520D4
:100884004C4120424154455249412045533A2000AD
:100894004C412054454E53494F4E2044454C205022
:1008A400414E454C2045533A200000004C41204223
:1008B40041544552494120455354412044455343F2
:1008C4004F4E454354414441210D0A00454C2050AC
:1008D400414E454C204553544120444553434F4ECB
:1008E40045435441444F210D0A000C192633404C12
:1008F4005966737F8D99A6B3C0CDD9E6F3FF000185
:10090400020304050506070809001020304151615F
:10091400728292A3B3C3D4E4F4FF0001010203037F
:0A092400040505060707080909008D
:00000001FF
