:020000020000FC
:0400000019C04EC015
:04002400D4C0FCC088
:02001A0043C0E1
:100034000FEF0DBF04E00EBF4DD0ECD089D1B7D186
:1000440059D09FD08DD2789468D106C09AD088D2E6
:1000540077D13BD3789400C0FFCF40985ED1409ACB
:100064005CD1FACF419859D1419A57D1F5CF5F98D5
:1000740054D15F9A52D1F0CF5C984FD15C9A4DD154
:10008400EBCF7ED181D148F08CD1A9D1ACD180F015
:1000940083D1B6D198D208F4B9D1DECF189518958A
:1000A400009176010023C9F7E0EAF7E0D8D0F5CF54
:1000B40078D1A1D132D1F1CF0AB10B7F0AB9009125
:1000C40069000C7F0160009369000DB30C7F01602F
:1000D4000DBB08950EEE0093840005E8009385009F
:1000E40004E00093810000E00093800001E00093AD
:1000F4006F00089534E630937C0036E830937A003C
:100104003CE330937E00089500917C00007F032B34
:1001140000937C00089500917A00006C00937A00AB
:1001240000917A0006FDFCCF0F7700937A0030919E
:10013400780040917900089502D012D0089554B106
:10014400597F566054B954B55C70536A54BD55B563
:10015400587F526055BD002707BD002708BD08958C
:100164005AB1577F58605AB95091B0005C7C5362C1
:100174005093B0005091B100587F52605093B10039
:1001840008950F931F93AF93BF9300E00093C500AE
:1001940007E60093C40002E00093C00006E0009369
:1001A400C20008E90093C10000E0802E01E0902E17
:1001B400A0E0B1E010E400270D931A95E9F7AA2412
:1001C400BF91AF911F910F9108950091C600013323
:1001D40059F0023369F0033389F00433A9F005338D
:1001E400A9F00633A9F01895E4E2F7E038D0FBCF84
:1001F400E8E4F7E0C0E4D1E04FD0F5CFE6E6F7E07D
:10020400C8E4D1E049D0EFCF93D0EDCF99D0EBCF74
:1002140001D0E9CF00270093760108950F931F932F
:100224000FB70F93AF93BF93AA2069F0D4010D9138
:100234000093C600A03420F0B13010F0A0E0B1E08B
:100244004D01AA9429F40091C1000F7D0093C100CF
:10025400BF91AF910F910FBF1F910F911895EF931D
:10026400FF93AF93BF930F93D4010591002349F0FB
:100274000D93A394A034C8F3B130B8F3A0E0B1E077
:10028400F4CF0091C10000620093C1000F91BF91AF
:10029400AF91FF91EF910895EF93FF93AF93BF93C5
:1002A4000F93D4010591002349F00D93A394A03436
:1002B400C8F3B130B8F3A0E0B1E0F4CF0991002362
:1002C40049F00D93A394A034C8F3B130B8F3A0E07F
:1002D400B1E0F4CF0091C10000620093C1000F911E
:1002E400BF91AF91FF91EF91089522E039E03A95E3
:1002F400F1F72A95E1F708952F933F934F9323E065
:1003040038E048E74A95F1F73A95E1F72A95D1F7AD
:100314004F913F912F910895089525E13BE44FEBD0
:100324004A95F1F73A95E1F72A95D1F70000089537
:10033400009176010F3F19F00FEF0093B400089578
:10034400009176010F3FD9F300270093B40008957C
:100354000AB10F7600690AB91FD0A0E4B1E000E346
:100364000D9300E30D930EE20D9300E30D9306E568
:100374000D930DE00D930AE00D9300E00C930895A6
:1003840036E0C2DEC8DE089588944A3A10F009D0F7
:10039400089502D00894FCCF0BB10F7600610BB91D
:1003A40008950BB10F7600680BB98894089507B1CE
:1003B4000C7F036007B91FD0A8E4B1E000E30D93FC
:1003C40000E30D930EE20D9300E30D9306E50D9308
:1003D4000DE00D930AE00D9300E00C93089537E0CF
:1003E40093DE99DE08958894423310F009D008957D
:1003F40002D00894FCCF08B10C7F026008B90895BC
:1004040008B10C7F016008B988940895F8940091AC
:10041400700110917101011700F1009170011091A8
:1004240071011017E0F00091700110917101011732
:10043400C1F000917001109173010117A0F00091B7
:10044400700110917301101780F0009170011091E8
:100454007301011761F0789408953ED1DECF43D142
:10046400E2CF48D1E6CF4AD1EACF4FD1EECF54D133
:10047400F2CFA8E4B1E0EEEBF7E0403838F400E363
:100484000D9307D0EEEBF7E054D0089501E30D93FC
:10049400F8CF4C3030F1493140F1463250F143331A
:1004A40060F1403470F14C3480F1493590F14636B6
:1004B400A0F14337B0F14F37C0F14D3890F04939CE
:1004C400A0F0463AB0F0433BC0F0403CD0F04D3C85
:1004D400E0F0493DF0F0463E00F1433F10F125C005
:1004E400089500E30D930027FBCF01E30D9301E092
:1004F400F7CF02E30D9302E0F3CF03E30D9303E0A0
:10050400EFCF04E30D9304E0EBCF05E30D9305E097
:10051400E7CF06E30D9306E0E3CF07E30D9307E08F
:10052400DFCF08E30D9308E0DBCF09E30D9309E087
:10053400D7CF0F93E00F1BF4F3950E1B0E2F000083
:100544000491041BE2EDF7E00F93E00F1BF4F39525
:100554000E1B0E2F0000049100E3100F1C9308954E
:100564001ED04427EB2DFC2D4193BE2ECF2EE22D21
:10057400F32D41932E2E3F2EE42DF52D41934E2E37
:100584005F2EE62DF72D41936E2E7F2E0091740180
:10059400039500937401083020F301D0089500E519
:1005A400B02E01E0C02E08E6202E01E0302E00E639
:1005B400402E01E0502E08E5602E01E0702E002749
:1005C400009374010895009174010830F1F00091D2
:1005D400740103950093740168D0EB2DFC2D4193B5
:1005E400BE2ECF2E66D0E22DF32D41932E2E3F2E1C
:1005F40064D0E42DF52D41934E2E5F2E62D0E62D6E
:10060400F72D41936E2E7F2E0895C9DFE0CF08E0C9
:10061400E0E5F1E00F93019111271191010F2227D9
:10062400121F0A95D1F723E0000F111F2A95E1F755
:100634000F9110937001E8E6F1E00F9301911127F7
:100644001191010F2227121F0A95D1F723E0000F01
:10065400111F2A95E1F70F9110937301E0E6F1E081
:100664000F93019111271191010F2227121F0A954F
:10067400D1F723E0000F111F2A95E1F70F91109392
:100684007201E8E5F1E00F93019111271191010F37
:100694002227121F0A95D1F723E0000F111F2A9574
:1006A400E1F70F9110937101089532E02DDD33DDF0
:1006B400089535E029DD2FDD089535E025DD2BDDB6
:1006C400089533E021DD27DD08950AB10F7900662E
:1006D4000AB910D021D0089505B1097F026005B987
:1006E4005CE357BD089505B1097F046005B95CE377
:1006F40057BD08950027002707BD089505B1097F58
:10070400026005B956E458BD089505B1097F046037
:1007140005B956E458BD08950027002708BD08957B
:10072400534F4C415220545241434B45520D0A48B9
:10073400414349454E444F20454C2046555455525B
:100744004F0D0A004C412054454E53494F4E20440E
:1007540045204C4120424154455249412045533A99
:1007640020004C412054454E53494F4E2044454CA3
:100774002050414E454C2045533A20004C412042E4
:100784004154455249412045535441204445534323
:100794004F4E454354414441210D0A00454C2050DD
:1007A400414E454C204553544120444553434F4EFC
:1007B40045435441444F210D0A000C192633404C43
:1007C4005966737F8D99A6B3C0CDD9E6F3FF0001B6
:0A07D40002030304050607080809E4
:00000001FF
